:020000040000FA
:0600000005EF02F0120002
:0A00060001007A0400006A00000007
:0400100008000000E4
:0C001400D9CFE6FFE1CFD9FF020EE126B4
:10002000DE6ADD6ADECF10F0DDCF11F0FD0EDBCF32
:1000300012F0FE0EDBCF13F011501318E8AE02D011
:10004000133404D01250105C135011580AE2620E9F
:10005000E66E21EC02F0E552DF2A010E01E3DB2A15
:10006000E1D7020EE15C02E2E16AE552E16EE5529F
:10007000E7CFD9FF12000C0EE66E040EE66EAD0E51
:10008000E66EBEEC01F0E552E552E552050EE66E75
:1000900021EC02F0E55212003AEC02F035EC02F0ED
:1000A000000901E0FBD72CEC02F0F3CF10F0F4CF05
:1000B00011F0D89011321032D89011321032105005
:1000C00000D01200D9CFE6FFE1CFD9FF0B0EE12619
:1000D0003F0EDF6EDE52060EDD6E5B0EF36E020E1D
:1000E000F3CFDBFF4F0EF36E030EF3CFDBFF660E95
:1000F000F36E040EF3CFDBFF6D0EF36E050EF3CF40
:10010000DBFF7D0EF36E060EF3CFDBFF070EF36E03
:10011000F3CFDBFF7F0EF36E080EF3CFDBFF6F0E26
:10012000F36E090EF3CFDBFF0A0EDB6AD9CF10F0B6
:10013000DACF11F0FE0EDB500F011024E96E000E35
:100140001120EA6EEF506CC0E9FF6DC0EAFFEF6E60
:10015000640EF36E0A0EDBCFF4FFF350F45C07E29B
:100160000A0EDB28E76E0A0EE7CFDBFFF1D7FD0EA4
:10017000DB5070C0E9FF71C0EAFFEF6E640EF36EF2
:100180000A0EDBCFF4FFF350F45C07E20A0EDB2823
:10019000E76E0A0EE7CFDBFFF1D70B0EE15C02E260
:1001A000E16AE552E16EE552E7CFD9FF1200D9CFFF
:1001B000E6FFE1CFD9FFFE0EDB506CC0E9FF6DC05A
:1001C000EAFFEF6EE552E7CFD9FF1200D9CFE6FF85
:1001D000E1CFD9FF090EE1260A0E106E10C00CF017
:1001E000FE0EDBCF07F013EC02F003500F0BDF6EB7
:1001F0000A0E116E106E10C00CF0FE0EDBCF07F071
:1002000013EC02F011C00CF013EC02F003500F0BD2
:10021000E76E010EE7CFDBFF0A0E116E640E106E63
:1002200010C00CF0FE0EDBCF07F013EC02F011C093
:100230000CF013EC02F003500F0BE76E020EE7CF49
:10024000DBFF040EDB687F0EF36E050EF3CFDBFFE2
:10025000BF0EF36E060EF3CFDBFFDF0EF36E070E5D
:10026000F3CFDBFFEF0EF36E080EF3CFDBFF070ECD
:10027000DBCFE6FF020EDBCFE6FF24DFE552E552DF
:10028000060EDBCFE6FF010EDBCFE6FF1BDFE552FC
:10029000E552050EDBCFE6FFDFCFE6FF13DFE552C9
:1002A000E552090EE15C02E2E16AE552E16EE552D7
:1002B000E7CFD9FF12006AC0E9FF6BC0EAFFEF6A1F
:1002C0006EC0E9FF6FC0EAFFEF6AD5DE0001C80E1D
:0E02D000766F76C0E6FF7ADFE552FBD71200AC
:0202DE00060E0A
:1002E000F66E000EF76E000EF86E00010900F55074
:1002F000656F0900F550666F03E1656701D03DD079
:100300000900F550606F0900F550616F0900F55064
:10031000626F09000900F550E96E0900F550EA6EB8
:10032000090009000900F550636F0900F550646F7A
:1003300009000900F6CF67F0F7CF68F0F8CF69F051
:1003400060C0F6FF61C0F7FF62C0F8FF00016353B1
:1003500002E1645307E00900F550EE6E6307F8E22E
:100360006407F9D767C0F6FF68C0F7FF69C0F8FFF8
:0C03700000016507000E665BBFD712009D
:04037C00D9CFE6FFF0
:10038000DACFE6FFE1CFD9FFE2CFDAFFC26AC06A77
:10039000FC0EDB407F0B3C0BC26EFC0EDB38F00B1F
:1003A000300B106EFB0EDB500F0B1010C16EFD0EEC
:1003B000DB50040DF350380B116EFD0EDB380F0BC4
:1003C000070B106EFD0EDB50800B10101110C06E6D
:1003D000FC0EDBAE03D09E9C9D8CF28CC280E5525D
:0A03E000E5CFDAFFE7CFD9FF1200E6
:0603EA00000EF36E00EEB0
:1003F00000F0080E01D81200EA6002D0EE6AFCD7C5
:0A040000F350E9601200EE6AFCD729
:06040A0013EE00F023EEEA
:1004100000F0F86A0F9C6FEC01F03CEC02F05BEC32
:0604200001F0FBD7120001
:0A042600036A080EE76ED89007364F
:1004300003360C50035C02E3036E072AE72EF7D75E
:020440001200A8
:0E044200FF0EE350E84E1200000000D000D084
:0804500000D0E82EFAD71200DB
:08045800C450136E126AC35078
:0A0460001210F36E13C0F4FF120037
:06046A00C250020B01E08C
:04047000010E120067
:04047400C28212002E
:02047800120070
:06047A00930F810F940FA7
:02048000820FE9
:00000001FF
