:020000040000FA
:0600000003EF02F0120004
:0A00060001007604000076000000FF
:0400100008000000E4
:0C001400D9CFE6FFE1CFD9FF020EE126B4
:10002000DE6ADD6ADECF10F0DDCF11F0FD0EDBCF32
:1000300012F0FE0EDBCF13F011501318E8AE02D011
:10004000133404D01250105C135011580AE2620E9F
:10005000E66E1FEC02F0E552DF2A010E01E3DB2A17
:10006000E1D7020EE15C02E2E16AE552E16EE5529F
:10007000E7CFD9FF12000C0EE66E040EE66EAD0E51
:10008000E66EBCEC01F0E552E552E552050EE66E77
:100090001FEC02F0E552120038EC02F033EC02F0F3
:1000A000000901E0FBD72AEC02F0F3CF10F0F4CF07
:1000B00011F0D89011321032D89011321032105005
:1000C00000D01200D9CFE6FFE1CFD9FF0B0EE12619
:1000D0003F0EDF6EDE52060EDD6E5B0EF36E020E1D
:1000E000F3CFDBFF4F0EF36E030EF3CFDBFF660E95
:1000F000F36E040EF3CFDBFF6D0EF36E050EF3CF40
:10010000DBFF7D0EF36E060EF3CFDBFF070EF36E03
:10011000F3CFDBFF7F0EF36E080EF3CFDBFF6F0E26
:10012000F36E090EF3CFDBFF0A0EDB6AD9CF10F0B6
:10013000DACF11F0FE0EDB500F011024E96E000E35
:100140001120EA6EEF5078C0E9FF79C0EAFFEF6E48
:10015000640EF36E0A0EDBCFF4FFF350F45C07E29B
:100160000A0EDB28E76E0A0EE7CFDBFFF1D7FD0EA4
:10017000DB507CC0E9FF7DC0EAFFEF6E640EF36EDA
:100180000A0EDBCFF4FFF350F45C07E20A0EDB2823
:10019000E76E0A0EE7CFDBFFF1D70B0EE15C02E260
:1001A000E16AE552E16EE552E7CFD9FF1200D9CFFF
:1001B000E6FFE1CFD9FFFE0EDB5078C0E9FF79C042
:1001C000EAFFEF6EE552E7CFD9FF1200D9CFE6FF85
:1001D000E1CFD9FF050EE126DF68DE527F0EDD6E2E
:1001E000BF0EF36E020EF3CFDBFFDF0EF36E030ED6
:1001F000F3CFDBFFEF0EF36E040EF3CFDBFFFE0E4B
:10020000DBCF66F00A0E106E10C00CF0FE0EDBCFD6
:1002100007F011EC02F007C067F0640E106E10C01A
:100220000CF0FE0EDBCF07F011EC02F007C068F017
:100230000A0E106E10C00CF0FE0EDBCF07F011ECB2
:1002400002F003C069F00A0E106E10C00CF067C017
:1002500007F011EC02F003C06AF00A0E106E10C035
:100260000CF068C007F011EC02F003C06BF0030E55
:10027000DBCFE6FF6BC0E6FF25DFE552E552020E5D
:10028000DBCFE6FF6AC0E6FF1DDFE552E552010E57
:10029000DBCFE6FF69C0E6FF15DFE552E552050E4C
:1002A000E15C02E2E16AE552E16EE552E7CFD9FF97
:1002B000120076C0E9FF77C0EAFFEF6A7AC0E9FF73
:1002C0007BC0EAFFEF6AD7DE0001C80E646F64C02E
:0A02D000E6FF7CDFE552FBD71200C9
:0602DA00060EF66E000E98
:1002E000F76E000EF86E00010900F550716F0900FD
:1002F000F550726F03E1716701D03DD00900F550F0
:100300006C6F0900F5506D6F0900F5506E6F0900B4
:100310000900F550E96E0900F550EA6E0900090080
:100320000900F5506F6F0900F550706F0900090062
:10033000F6CF73F0F7CF74F0F8CF75F06CC0F6FF1E
:100340006DC0F7FF6EC0F8FF00016F5302E17053FC
:1003500007E00900F550EE6E6F07F8E27007F9D775
:1003600073C0F6FF74C0F7FF75C0F8FF0001710796
:08037000000E725BBFD7120002
:08037800D9CFE6FFDACFE6FF62
:10038000E1CFD9FFE2CFDAFFC26AC06AFC0EDB40E0
:100390007F0B3C0BC26EFC0EDB38F00B300B106E8B
:1003A000FB0EDB500F0B1010C16EFD0EDB50040D69
:1003B000F350380B116EFD0EDB380F0B070B106E70
:1003C000FD0EDB50800B10101110C06EFC0EDBAE6A
:1003D00003D09E9C9D8CF28CC280E552E5CFDAFF63
:0603E000E7CFD9FF120077
:0A03E600000EF36E00EE00F0080EAA
:1003F00001D81200EA6002D0EE6AFCD7F350E9603F
:060400001200EE6AFCD7B9
:0A04060013EE00F023EE00F0F86A98
:100410000F9C6DEC01F03AEC02F059EC01F0FBD7C7
:020420001200C8
:0E042200036A080EE76ED890073603360C50BA
:0E043000035C02E3036E072AE72EF7D71200E3
:02043E00FF0EAF
:10044000E350E84E1200000000D000D000D0E82EAB
:04045000FAD71200C5
:0C045400C450136E126AC3501210F36EF5
:0604600013C0F4FF1200BE
:0A046600C250020B01E0010E12006B
:04047000C282120032
:02047400120074
:08047600930F810F940F820F18
:00000001FF
